{
  "contractName": "Lottery",
  "abi": [
    {
      "constant": true,
      "inputs": [
        {
          "name": "",
          "type": "uint256"
        }
      ],
      "name": "players",
      "outputs": [
        {
          "name": "playerAddress",
          "type": "address"
        },
        {
          "name": "amount",
          "type": "uint256"
        }
      ],
      "payable": false,
      "stateMutability": "view",
      "type": "function"
    },
    {
      "inputs": [],
      "payable": false,
      "stateMutability": "nonpayable",
      "type": "constructor"
    },
    {
      "anonymous": false,
      "inputs": [
        {
          "indexed": false,
          "name": "target",
          "type": "address"
        },
        {
          "indexed": false,
          "name": "amount",
          "type": "uint256"
        }
      ],
      "name": "PayoutEvent",
      "type": "event"
    },
    {
      "anonymous": false,
      "inputs": [
        {
          "indexed": false,
          "name": "playerAddress",
          "type": "address"
        },
        {
          "indexed": false,
          "name": "amount",
          "type": "uint256"
        },
        {
          "indexed": false,
          "name": "pot",
          "type": "uint256"
        }
      ],
      "name": "PlayerAddedEvent",
      "type": "event"
    },
    {
      "constant": false,
      "inputs": [],
      "name": "restartLottery",
      "outputs": [],
      "payable": false,
      "stateMutability": "nonpayable",
      "type": "function"
    },
    {
      "constant": false,
      "inputs": [],
      "name": "addPlayer",
      "outputs": [],
      "payable": true,
      "stateMutability": "payable",
      "type": "function"
    },
    {
      "constant": true,
      "inputs": [],
      "name": "getPlayers",
      "outputs": [
        {
          "name": "",
          "type": "address[]"
        },
        {
          "name": "",
          "type": "uint256[]"
        }
      ],
      "payable": false,
      "stateMutability": "view",
      "type": "function"
    },
    {
      "constant": true,
      "inputs": [],
      "name": "getBalance",
      "outputs": [
        {
          "name": "",
          "type": "uint256"
        }
      ],
      "payable": false,
      "stateMutability": "view",
      "type": "function"
    }
  ],
  "bytecode": "0x60606040526000600355341561001457600080fd5b61002f610034640100000000026101d6176401000000009004565b61004e565b600060018190555060006002819055506000600381905550565b6107d38061005d6000396000f30060606040526004361061006d576000357c0100000000000000000000000000000000000000000000000000000000900463ffffffff1680630fcaed941461007257806312065fe01461008757806327b5db8a146100b05780638b5b9ccc146100ba578063f71d96cb1461016c575b600080fd5b341561007d57600080fd5b6100856101d6565b005b341561009257600080fd5b61009a6101f0565b6040518082815260200191505060405180910390f35b6100b86101fa565b005b34156100c557600080fd5b6100cd610358565b604051808060200180602001838103835285818151815260200191508051906020019060200280838360005b838110156101145780820151818401526020810190506100f9565b50505050905001838103825284818151815260200191508051906020019060200280838360005b8381101561015657808201518184015260208101905061013b565b5050505090500194505050505060405180910390f35b341561017757600080fd5b61018d60048080359060200190919050506104ec565b604051808373ffffffffffffffffffffffffffffffffffffffff1673ffffffffffffffffffffffffffffffffffffffff1681526020018281526020019250505060405180910390f35b600060018190555060006002819055506000600381905550565b6000600254905090565b6102026106cf565b67016345785d8a0000341015151561021957600080fd5b678ac7230489e8000034600254011115151561023457600080fd5b33816000019073ffffffffffffffffffffffffffffffffffffffff16908173ffffffffffffffffffffffffffffffffffffffff168152505034816020018181525050600080549050600154141561029f57600160008181805490500191508161029d91906106ff565b505b80600060016000815480929190600101919050558154811015156102bf57fe5b906000526020600020906002020160008201518160000160006101000a81548173ffffffffffffffffffffffffffffffffffffffff021916908373ffffffffffffffffffffffffffffffffffffffff16021790555060208201518160010155905050346002600082825401925050819055506103396101f0565b50678ac7230489e8000060025414156103555761035461053f565b5b50565b610360610731565b610368610745565b610370610731565b610378610745565b60006103826106cf565b6001546040518059106103925750595b908082528060200260200182016040525093506001546040518059106103b55750595b90808252806020026020018201604052509250600091505b6001548210156104de576000828154811015156103e657fe5b90600052602060002090600202016040805190810160405290816000820160009054906101000a900473ffffffffffffffffffffffffffffffffffffffff1673ffffffffffffffffffffffffffffffffffffffff1673ffffffffffffffffffffffffffffffffffffffff16815260200160018201548152505090508060000151848381518110151561047457fe5b9060200190602002019073ffffffffffffffffffffffffffffffffffffffff16908173ffffffffffffffffffffffffffffffffffffffff1681525050806020015183838151811015156104c357fe5b906020019060200201818152505081806001019250506103cd565b838395509550505050509091565b6000818154811015156104fb57fe5b90600052602060002090600202016000915090508060000160009054906101000a900473ffffffffffffffffffffffffffffffffffffffff16908060010154905082565b60008061054a61060c565b600481905550600091505b6001156106085767016345785d8a000060008381548110151561057457fe5b90600052602060002090600202016001015481151561058f57fe5b046003600082825401925050819055506004546003541015156105fd576000828154811015156105bb57fe5b906000526020600020906002020160000160009054906101000a900473ffffffffffffffffffffffffffffffffffffffff1690506105f881610615565b610608565b600182019150610555565b5050565b6000602a905090565b8073ffffffffffffffffffffffffffffffffffffffff166108fc6002549081150290604051600060405180830381858888f19350505050151561065757600080fd5b61065f6101d6565b7f80e009436f30a4f32133e25b51b5349f2842ea9e93ea4fb6cdaaa4b4e518c68781600254604051808373ffffffffffffffffffffffffffffffffffffffff1673ffffffffffffffffffffffffffffffffffffffff1681526020018281526020019250505060405180910390a150565b6040805190810160405280600073ffffffffffffffffffffffffffffffffffffffff168152602001600081525090565b81548183558181151161072c5760020281600202836000526020600020918201910161072b9190610759565b5b505050565b602060405190810160405280600081525090565b602060405190810160405280600081525090565b6107a491905b808211156107a057600080820160006101000a81549073ffffffffffffffffffffffffffffffffffffffff021916905560018201600090555060020161075f565b5090565b905600a165627a7a723058203e4cbb92ddf1560032b258e9d57df7e23ad3ade8a5eb7f35787d24418fe0bcb30029",
  "source": "pragma solidity ^0.4.17;\n\ncontract Lottery {\n\n  Player[] public players;\n  uint numPlayers;\n  uint256 pot;\n\n  event PayoutEvent(address target, uint256 amount);\n  event PlayerAddedEvent(address playerAddress, uint256 amount, uint256 pot);\n\n  struct Player {\n    address playerAddress;\n    uint256 amount;\n  }\n\n\n  function Lottery() public {\n    restartLottery();\n  }\n\n\n  function restartLottery() public {\n    numPlayers = 0;\n    pot = 0;\n    accumulatedLotteryTicketNumber = 0;\n  }\n\n\n  function addPlayer() payable public {\n    require(msg.value >= 0.1 ether);\n    require(pot + msg.value <= 10 ether);\n\n    Player memory newPlayer;\n    newPlayer.playerAddress = msg.sender;\n    newPlayer.amount = msg.value;\n\n    /*\n      This method of processing an array might be worth talking about.\n      https://ethereum.stackexchange.com/questions/3373/how-to-clear-large-arrays-without-blowing-the-gas-limit\n    */\n    if (numPlayers == players.length) {\n      players.length += 1;\n    }\n    players[numPlayers++] = newPlayer;\n\n    pot += msg.value;\n\n    //emit PlayerAddedEvent(msg.sender, msg.value, getBalance());\n    getBalance();\n\n    if (pot == 10 ether ) {\n      playLottery();\n    }\n  }\n\n\n  function getPlayers() constant public returns (address[], uint[]){\n    address[] memory playerAddresses = new address[](numPlayers);\n    uint[] memory amounts = new uint[](numPlayers);\n\n    for (uint i = 0; i < numPlayers; i++) {\n      Player memory currentPlayer;\n      currentPlayer = players[i];\n\n      playerAddresses[i] = currentPlayer.playerAddress;\n      amounts[i] = currentPlayer.amount;\n    }\n    return (playerAddresses, amounts);\n  }\n\n\n  function getBalance() constant public returns (uint256) {\n    return pot;\n  }\n\n\n  uint accumulatedLotteryTicketNumber = 0;\n  uint winnerTickerNumber;\n\n  function playLottery() private {\n    winnerTickerNumber = getWinnerTicketNumber();\n    uint playerIndex = 0;\n    while (true) {\n      accumulatedLotteryTicketNumber += players[playerIndex].amount / (10 ** 17);\n      if (accumulatedLotteryTicketNumber >= winnerTickerNumber) {\n        address winner = players[playerIndex].playerAddress;\n        payout(winner);\n        break;\n      }\n      else {\n        playerIndex += 1;\n      }\n    }\n  }\n  \n\n  /*\n    TODO: Implement a way to randomly choose a value between 1 and 100.\n  */\n  function getWinnerTicketNumber() constant private returns (uint) {\n    return 42;\n  }\n\n\n  function payout(address winner) private {\n    winner.transfer(pot);\n    restartLottery();\n    emit PayoutEvent(winner, pot);\n  }\n}\n",
  "sourcePath": "/Users/vincent/Documents/FIB/DS/Project/FIB-DS-Ethereum-SmartContracts/Lottery/contracts/Lottery.sol",
  "compiler": {
    "name": "solc",
    "version": "0.4.21+commit.dfe3193c.Emscripten.clang"
  },
  "schemaVersion": "2.0.0",
  "updatedAt": "2018-04-29T13:21:45.874Z"
}