{
  "contractName": "Lottery",
  "abi": [
    {
      "constant": true,
      "inputs": [
        {
          "name": "",
          "type": "uint256"
        }
      ],
      "name": "players",
      "outputs": [
        {
          "name": "playerAddress",
          "type": "address"
        },
        {
          "name": "amount",
          "type": "uint256"
        }
      ],
      "payable": false,
      "stateMutability": "view",
      "type": "function"
    },
    {
      "constant": false,
      "inputs": [],
      "name": "addPlayer",
      "outputs": [],
      "payable": true,
      "stateMutability": "payable",
      "type": "function"
    },
    {
      "constant": true,
      "inputs": [],
      "name": "getPlayers",
      "outputs": [
        {
          "name": "",
          "type": "address[]"
        },
        {
          "name": "",
          "type": "uint256[]"
        }
      ],
      "payable": false,
      "stateMutability": "view",
      "type": "function"
    },
    {
      "constant": true,
      "inputs": [],
      "name": "getTotalAmount",
      "outputs": [
        {
          "name": "",
          "type": "uint256"
        }
      ],
      "payable": false,
      "stateMutability": "view",
      "type": "function"
    }
  ],
  "bytecode": "0x6060604052341561000f57600080fd5b6105a68061001e6000396000f300606060405260043610610062576000357c0100000000000000000000000000000000000000000000000000000000900463ffffffff16806327b5db8a1461006757806365ac4341146100715780638b5b9ccc1461009a578063f71d96cb1461014c575b600080fd5b61006f6101b6565b005b341561007c57600080fd5b6100846102ac565b6040518082815260200191505060405180910390f35b34156100a557600080fd5b6100ad6102b6565b604051808060200180602001838103835285818151815260200191508051906020019060200280838360005b838110156100f45780820151818401526020810190506100d9565b50505050905001838103825284818151815260200191508051906020019060200280838360005b8381101561013657808201518184015260208101905061011b565b5050505090500194505050505060405180910390f35b341561015757600080fd5b61016d600480803590602001909190505061044f565b604051808373ffffffffffffffffffffffffffffffffffffffff1673ffffffffffffffffffffffffffffffffffffffff1681526020018281526020019250505060405180910390f35b6101be6104a2565b670de0b6b3a76400003460015401111515156101d957600080fd5b33816000019073ffffffffffffffffffffffffffffffffffffffff16908173ffffffffffffffffffffffffffffffffffffffff1681525050348160200181815250506000805480600101828161022f91906104d2565b9160005260206000209060020201600083909190915060008201518160000160006101000a81548173ffffffffffffffffffffffffffffffffffffffff021916908373ffffffffffffffffffffffffffffffffffffffff160217905550602082015181600101555050503460016000828254019250508190555050565b6000600154905090565b6102be610504565b6102c6610518565b60006102d0610504565b6102d8610518565b60006102e26104a2565b6000805490509450846040518059106102f85750595b90808252806020026020018201604052509350846040518059106103195750595b90808252806020026020018201604052509250600091505b848210156104405760008281548110151561034857fe5b90600052602060002090600202016040805190810160405290816000820160009054906101000a900473ffffffffffffffffffffffffffffffffffffffff1673ffffffffffffffffffffffffffffffffffffffff1673ffffffffffffffffffffffffffffffffffffffff1681526020016001820154815250509050806000015184838151811015156103d657fe5b9060200190602002019073ffffffffffffffffffffffffffffffffffffffff16908173ffffffffffffffffffffffffffffffffffffffff16815250508060200151838381518110151561042557fe5b90602001906020020181815250508180600101925050610331565b83839650965050505050509091565b60008181548110151561045e57fe5b90600052602060002090600202016000915090508060000160009054906101000a900473ffffffffffffffffffffffffffffffffffffffff16908060010154905082565b6040805190810160405280600073ffffffffffffffffffffffffffffffffffffffff168152602001600081525090565b8154818355818115116104ff576002028160020283600052602060002091820191016104fe919061052c565b5b505050565b602060405190810160405280600081525090565b602060405190810160405280600081525090565b61057791905b8082111561057357600080820160006101000a81549073ffffffffffffffffffffffffffffffffffffffff0219169055600182016000905550600201610532565b5090565b905600a165627a7a72305820624af6f603c0e4747f9b029be8fa3d4fc6f7d4a886a9ade02d75df11478122270029",
  "source": "pragma solidity ^0.4.17;\n\ncontract Lottery {\n\n\n  Player[] public players;\n  uint256 totalAmount;\n\n\n  struct Player {\n    address playerAddress;\n    uint256 amount;\n  }\n\n\n  function addPlayer() payable {\n    require(totalAmount + msg.value <= 1 ether);\n\n    Player memory newPlayer;\n    newPlayer.playerAddress = msg.sender;\n    newPlayer.amount = msg.value;\n\n    players.push(newPlayer);\n\n    totalAmount += msg.value;\n\n/*\n    if (totalAmount == 1 ether) {\n      playLottery();\n    }\n*/\n  }\n\n\n  function getPlayers() constant returns (address[], uint[]) {\n    uint length = players.length;\n\n    address[] memory playerAddresses = new address[](length);\n    uint[] memory amounts = new uint[](length);\n\n    for (uint i = 0; i < length; i++) {\n      Player memory currentPlayer;\n      currentPlayer = players[i];\n\n      playerAddresses[i] = currentPlayer.playerAddress;\n      amounts[i] = currentPlayer.amount;\n    }\n    return (playerAddresses, amounts);\n  }\n\n\n  function getTotalAmount() constant returns (uint) {\n    return (totalAmount);\n  }\n\n\n/*\n  function playLottery() returns (Player) {\n    // TODO: Add logic to determine which player wins.\n    //players[0].transfer(this.balance);\n    return players[0];\n  }\n*/\n\n\n}\n",
  "sourcePath": "/Users/vincent/Documents/FIB/DS/Project/FIB-DS-Ethereum-SmartContracts/Lottery/contracts/Lottery.sol",
  "compiler": {
    "name": "solc",
    "version": "0.4.21+commit.dfe3193c.Emscripten.clang"
  },
  "schemaVersion": "2.0.0",
  "updatedAt": "2018-04-26T15:31:36.243Z"
}