{
  "contractName": "Lottery",
  "abi": [
    {
      "constant": true,
      "inputs": [
        {
          "name": "",
          "type": "uint256"
        }
      ],
      "name": "players",
      "outputs": [
        {
          "name": "playerAddress",
          "type": "address"
        },
        {
          "name": "amount",
          "type": "uint256"
        }
      ],
      "payable": false,
      "stateMutability": "view",
      "type": "function"
    },
    {
      "anonymous": false,
      "inputs": [
        {
          "indexed": false,
          "name": "target",
          "type": "address"
        },
        {
          "indexed": false,
          "name": "amount",
          "type": "uint256"
        }
      ],
      "name": "PayoutEvent",
      "type": "event"
    },
    {
      "constant": false,
      "inputs": [],
      "name": "addPlayer",
      "outputs": [],
      "payable": true,
      "stateMutability": "payable",
      "type": "function"
    },
    {
      "constant": true,
      "inputs": [],
      "name": "getPlayers",
      "outputs": [
        {
          "name": "",
          "type": "address[]"
        },
        {
          "name": "",
          "type": "uint256[]"
        }
      ],
      "payable": false,
      "stateMutability": "view",
      "type": "function"
    },
    {
      "constant": true,
      "inputs": [],
      "name": "getBalance",
      "outputs": [
        {
          "name": "",
          "type": "uint256"
        }
      ],
      "payable": false,
      "stateMutability": "view",
      "type": "function"
    },
    {
      "constant": false,
      "inputs": [],
      "name": "playLottery",
      "outputs": [],
      "payable": false,
      "stateMutability": "nonpayable",
      "type": "function"
    }
  ],
  "bytecode": "0x6060604052341561000f57600080fd5b6107128061001e6000396000f30060606040526004361061006d576000357c0100000000000000000000000000000000000000000000000000000000900463ffffffff16806312065fe01461007257806327b5db8a1461009b5780638b5b9ccc146100a5578063d4cd77a314610157578063f71d96cb1461016c575b600080fd5b341561007d57600080fd5b6100856101d6565b6040518082815260200191505060405180910390f35b6100a36101e0565b005b34156100b057600080fd5b6100b86102f1565b604051808060200180602001838103835285818151815260200191508051906020019060200280838360005b838110156100ff5780820151818401526020810190506100e4565b50505050905001838103825284818151815260200191508051906020019060200280838360005b83811015610141578082015181840152602081019050610126565b5050505090500194505050505060405180910390f35b341561016257600080fd5b61016a61048a565b005b341561017757600080fd5b61018d60048080359060200190919050506105bb565b604051808373ffffffffffffffffffffffffffffffffffffffff1673ffffffffffffffffffffffffffffffffffffffff1681526020018281526020019250505060405180910390f35b6000600154905090565b6101e861060e565b670de0b6b3a764000034600154011115151561020357600080fd5b33816000019073ffffffffffffffffffffffffffffffffffffffff16908173ffffffffffffffffffffffffffffffffffffffff16815250503481602001818152505060008054806001018281610259919061063e565b9160005260206000209060020201600083909190915060008201518160000160006101000a81548173ffffffffffffffffffffffffffffffffffffffff021916908373ffffffffffffffffffffffffffffffffffffffff1602179055506020820151816001015550505034600160008282540192505081905550670d2f13f7789f000060015411156102ee576102ed61048a565b5b50565b6102f9610670565b610301610684565b600061030b610670565b610313610684565b600061031d61060e565b6000805490509450846040518059106103335750595b90808252806020026020018201604052509350846040518059106103545750595b90808252806020026020018201604052509250600091505b8482101561047b5760008281548110151561038357fe5b90600052602060002090600202016040805190810160405290816000820160009054906101000a900473ffffffffffffffffffffffffffffffffffffffff1673ffffffffffffffffffffffffffffffffffffffff1673ffffffffffffffffffffffffffffffffffffffff16815260200160018201548152505090508060000151848381518110151561041157fe5b9060200190602002019073ffffffffffffffffffffffffffffffffffffffff16908173ffffffffffffffffffffffffffffffffffffffff16815250508060200151838381518110151561046057fe5b9060200190602002018181525050818060010192505061036c565b83839650965050505050509091565b60008081548110151561049957fe5b906000526020600020906002020160000160009054906101000a900473ffffffffffffffffffffffffffffffffffffffff1673ffffffffffffffffffffffffffffffffffffffff166108fc6001549081150290604051600060405180830381858888f19350505050151561050c57600080fd5b7f80e009436f30a4f32133e25b51b5349f2842ea9e93ea4fb6cdaaa4b4e518c68760008081548110151561053c57fe5b906000526020600020906002020160000160009054906101000a900473ffffffffffffffffffffffffffffffffffffffff16600154604051808373ffffffffffffffffffffffffffffffffffffffff1673ffffffffffffffffffffffffffffffffffffffff1681526020018281526020019250505060405180910390a1565b6000818154811015156105ca57fe5b90600052602060002090600202016000915090508060000160009054906101000a900473ffffffffffffffffffffffffffffffffffffffff16908060010154905082565b6040805190810160405280600073ffffffffffffffffffffffffffffffffffffffff168152602001600081525090565b81548183558181151161066b5760020281600202836000526020600020918201910161066a9190610698565b5b505050565b602060405190810160405280600081525090565b602060405190810160405280600081525090565b6106e391905b808211156106df57600080820160006101000a81549073ffffffffffffffffffffffffffffffffffffffff021916905560018201600090555060020161069e565b5090565b905600a165627a7a7230582042b8b1115038ffb2a396d3fce9377fd316345f73a31a251bb5f47a911a511ff30029",
  "source": "pragma solidity ^0.4.17;\n\ncontract Lottery {\n\n\n  Player[] public players;\n  uint256 pot;\n\n  event PayoutEvent(address target, uint amount);\n\n  struct Player {\n    address playerAddress;\n    uint256 amount;\n  }\n\n\n  function addPlayer() payable {\n    require(pot + msg.value <= 1 ether);\n\n    Player memory newPlayer;\n    newPlayer.playerAddress = msg.sender;\n    newPlayer.amount = msg.value;\n\n    players.push(newPlayer);\n\n    pot += msg.value;\n\n    if (pot > 0.95 ether ) {\n      playLottery();\n    }\n  }\n\n\n  function getPlayers() constant returns (address[], uint[]) {\n    uint length = players.length;\n\n    address[] memory playerAddresses = new address[](length);\n    uint[] memory amounts = new uint[](length);\n\n    for (uint i = 0; i < length; i++) {\n      Player memory currentPlayer;\n      currentPlayer = players[i];\n\n      playerAddresses[i] = currentPlayer.playerAddress;\n      amounts[i] = currentPlayer.amount;\n    }\n    return (playerAddresses, amounts);\n  }\n\n\n  function getBalance() constant returns (uint256) {\n    return pot;\n  }\n\n\n  function playLottery() {\n    // TODO: Add logic to determine which player wins.\n    players[0].playerAddress.transfer(pot);\n    PayoutEvent(players[0].playerAddress, pot);\n  }\n\n}\n",
  "sourcePath": "/Users/vincent/Documents/FIB/DS/Project/FIB-DS-Ethereum-SmartContracts/Lottery/contracts/Lottery.sol",
  "compiler": {
    "name": "solc",
    "version": "0.4.21+commit.dfe3193c.Emscripten.clang"
  },
  "schemaVersion": "2.0.0",
  "updatedAt": "2018-04-28T14:42:57.277Z"
}