{
  "contractName": "Lottery",
  "abi": [
    {
      "constant": true,
      "inputs": [
        {
          "name": "",
          "type": "uint256"
        }
      ],
      "name": "players",
      "outputs": [
        {
          "name": "playerAddress",
          "type": "address"
        },
        {
          "name": "amount",
          "type": "uint256"
        }
      ],
      "payable": false,
      "stateMutability": "view",
      "type": "function"
    },
    {
      "inputs": [],
      "payable": false,
      "stateMutability": "nonpayable",
      "type": "constructor"
    },
    {
      "anonymous": false,
      "inputs": [
        {
          "indexed": false,
          "name": "target",
          "type": "address"
        },
        {
          "indexed": false,
          "name": "amount",
          "type": "uint256"
        }
      ],
      "name": "PayoutEvent",
      "type": "event"
    },
    {
      "anonymous": false,
      "inputs": [
        {
          "indexed": false,
          "name": "playerAddress",
          "type": "address"
        },
        {
          "indexed": false,
          "name": "amount",
          "type": "uint256"
        },
        {
          "indexed": false,
          "name": "pot",
          "type": "uint256"
        }
      ],
      "name": "PlayerAddedEvent",
      "type": "event"
    },
    {
      "constant": false,
      "inputs": [],
      "name": "addPlayer",
      "outputs": [],
      "payable": true,
      "stateMutability": "payable",
      "type": "function"
    },
    {
      "constant": false,
      "inputs": [],
      "name": "restartLottery",
      "outputs": [],
      "payable": false,
      "stateMutability": "nonpayable",
      "type": "function"
    },
    {
      "constant": true,
      "inputs": [],
      "name": "getPlayers",
      "outputs": [
        {
          "name": "",
          "type": "address[]"
        },
        {
          "name": "",
          "type": "uint256[]"
        }
      ],
      "payable": false,
      "stateMutability": "view",
      "type": "function"
    },
    {
      "constant": true,
      "inputs": [],
      "name": "getBalance",
      "outputs": [
        {
          "name": "",
          "type": "uint256"
        }
      ],
      "payable": false,
      "stateMutability": "view",
      "type": "function"
    }
  ],
  "bytecode": "0x6060604052341561000f57600080fd5b61002a61002f640100000000026101d6176401000000009004565b610041565b60006001819055506000600281905550565b6107d0806100506000396000f30060606040526004361061006d576000357c0100000000000000000000000000000000000000000000000000000000900463ffffffff1680630fcaed941461007257806312065fe01461008757806327b5db8a146100b05780638b5b9ccc146100ba578063f71d96cb1461016c575b600080fd5b341561007d57600080fd5b6100856101d6565b005b341561009257600080fd5b61009a6101e8565b6040518082815260200191505060405180910390f35b6100b86101f2565b005b34156100c557600080fd5b6100cd6103aa565b604051808060200180602001838103835285818151815260200191508051906020019060200280838360005b838110156101145780820151818401526020810190506100f9565b50505050905001838103825284818151815260200191508051906020019060200280838360005b8381101561015657808201518184015260208101905061013b565b5050505090500194505050505060405180910390f35b341561017757600080fd5b61018d6004808035906020019091905050610540565b604051808373ffffffffffffffffffffffffffffffffffffffff1673ffffffffffffffffffffffffffffffffffffffff1681526020018281526020019250505060405180910390f35b60006001819055506000600281905550565b6000600254905090565b6101fa6106cc565b678ac7230489e8000034600254011115151561021557600080fd5b33816000019073ffffffffffffffffffffffffffffffffffffffff16908173ffffffffffffffffffffffffffffffffffffffff168152505034816020018181525050600080549050600154141561028057600160008181805490500191508161027e91906106fc565b505b80600060016000815480929190600101919050558154811015156102a057fe5b906000526020600020906002020160008201518160000160006101000a81548173ffffffffffffffffffffffffffffffffffffffff021916908373ffffffffffffffffffffffffffffffffffffffff16021790555060208201518160010155905050346002600082825401925050819055507f495c9e7b8adb47177a67ea70e038edbed2fa5816d03c72c7a737077f058f533b333461033d6101e8565b604051808473ffffffffffffffffffffffffffffffffffffffff1673ffffffffffffffffffffffffffffffffffffffff168152602001838152602001828152602001935050505060405180910390a16783d6c7aab636000060025411156103a7576103a6610593565b5b50565b6103b261072e565b6103ba610742565b60006103c461072e565b6103cc610742565b60006103d66106cc565b6001549450846040518059106103e95750595b908082528060200260200182016040525093508460405180591061040a5750595b90808252806020026020018201604052509250600091505b848210156105315760008281548110151561043957fe5b90600052602060002090600202016040805190810160405290816000820160009054906101000a900473ffffffffffffffffffffffffffffffffffffffff1673ffffffffffffffffffffffffffffffffffffffff1673ffffffffffffffffffffffffffffffffffffffff1681526020016001820154815250509050806000015184838151811015156104c757fe5b9060200190602002019073ffffffffffffffffffffffffffffffffffffffff16908173ffffffffffffffffffffffffffffffffffffffff16815250508060200151838381518110151561051657fe5b90602001906020020181815250508180600101925050610422565b83839650965050505050509091565b60008181548110151561054f57fe5b90600052602060002090600202016000915090508060000160009054906101000a900473ffffffffffffffffffffffffffffffffffffffff16908060010154905082565b6000808154811015156105a257fe5b906000526020600020906002020160000160009054906101000a900473ffffffffffffffffffffffffffffffffffffffff1673ffffffffffffffffffffffffffffffffffffffff166108fc6002549081150290604051600060405180830381858888f19350505050151561061557600080fd5b61061d6101d6565b7f80e009436f30a4f32133e25b51b5349f2842ea9e93ea4fb6cdaaa4b4e518c68760008081548110151561064d57fe5b906000526020600020906002020160000160009054906101000a900473ffffffffffffffffffffffffffffffffffffffff16600254604051808373ffffffffffffffffffffffffffffffffffffffff1673ffffffffffffffffffffffffffffffffffffffff1681526020018281526020019250505060405180910390a1565b6040805190810160405280600073ffffffffffffffffffffffffffffffffffffffff168152602001600081525090565b815481835581811511610729576002028160020283600052602060002091820191016107289190610756565b5b505050565b602060405190810160405280600081525090565b602060405190810160405280600081525090565b6107a191905b8082111561079d57600080820160006101000a81549073ffffffffffffffffffffffffffffffffffffffff021916905560018201600090555060020161075c565b5090565b905600a165627a7a7230582004517e4a4f654cfa18d742b3543d119719ced18900467646c2ed2947966b329f0029",
  "source": "pragma solidity ^0.4.17;\n\ncontract Lottery {\n\n  Player[] public players;\n  uint numPlayers;\n  uint256 pot;\n\n  event PayoutEvent(address target, uint256 amount);\n  event PlayerAddedEvent(address playerAddress, uint256 amount, uint256 pot);\n\n  struct Player {\n    address playerAddress;\n    uint256 amount;\n  }\n\n\n  function Lottery() public {\n    restartLottery();\n  }\n\n\n  function addPlayer() payable public {\n    require(pot + msg.value <= 10 ether);\n\n    Player memory newPlayer;\n    newPlayer.playerAddress = msg.sender;\n    newPlayer.amount = msg.value;\n\n    /*\n      This method of processing an array might be worth talking about.\n      https://ethereum.stackexchange.com/questions/3373/how-to-clear-large-arrays-without-blowing-the-gas-limit\n    */\n    if (numPlayers == players.length) {\n      players.length += 1;\n    }\n    players[numPlayers++] = newPlayer;\n\n    pot += msg.value;\n\n    emit PlayerAddedEvent(msg.sender, msg.value, getBalance());\n\n    if (pot > 9.5 ether ) {\n      playLottery();\n    }\n  }\n\n\n  function restartLottery() public {\n    numPlayers = 0;\n    pot = 0;\n  }\n\n\n  function getPlayers() constant public returns (address[], uint[]){\n    uint length = numPlayers;\n\n    address[] memory playerAddresses = new address[](length);\n    uint[] memory amounts = new uint[](length);\n\n    for (uint i = 0; i < length; i++) {\n      Player memory currentPlayer;\n      currentPlayer = players[i];\n\n      playerAddresses[i] = currentPlayer.playerAddress;\n      amounts[i] = currentPlayer.amount;\n    }\n    return (playerAddresses, amounts);\n  }\n\n\n  function getBalance() constant public returns (uint256) {\n    return pot;\n  }\n\n\n  // TODO: Add logic to determine which player wins.\n  function playLottery() private {\n    players[0].playerAddress.transfer(pot);\n    restartLottery();\n    emit PayoutEvent(players[0].playerAddress, pot);\n  }\n}\n",
  "sourcePath": "/Users/vincent/Documents/FIB/DS/Project/FIB-DS-Ethereum-SmartContracts/Lottery/contracts/Lottery.sol",
  "compiler": {
    "name": "solc",
    "version": "0.4.21+commit.dfe3193c.Emscripten.clang"
  },
  "schemaVersion": "2.0.0",
  "updatedAt": "2018-04-28T16:11:08.708Z"
}