{
  "contractName": "Lottery",
  "abi": [
    {
      "constant": true,
      "inputs": [
        {
          "name": "",
          "type": "uint256"
        }
      ],
      "name": "players",
      "outputs": [
        {
          "name": "playerAddress",
          "type": "address"
        },
        {
          "name": "amount",
          "type": "uint256"
        }
      ],
      "payable": false,
      "stateMutability": "view",
      "type": "function"
    },
    {
      "inputs": [],
      "payable": false,
      "stateMutability": "nonpayable",
      "type": "constructor"
    },
    {
      "anonymous": false,
      "inputs": [
        {
          "indexed": false,
          "name": "target",
          "type": "address"
        },
        {
          "indexed": false,
          "name": "amount",
          "type": "uint256"
        }
      ],
      "name": "PayoutEvent",
      "type": "event"
    },
    {
      "anonymous": false,
      "inputs": [
        {
          "indexed": false,
          "name": "playerAddress",
          "type": "address"
        },
        {
          "indexed": false,
          "name": "amount",
          "type": "uint256"
        },
        {
          "indexed": false,
          "name": "pot",
          "type": "uint256"
        }
      ],
      "name": "PlayerAddedEvent",
      "type": "event"
    },
    {
      "constant": false,
      "inputs": [],
      "name": "restartLottery",
      "outputs": [],
      "payable": false,
      "stateMutability": "nonpayable",
      "type": "function"
    },
    {
      "constant": false,
      "inputs": [],
      "name": "addPlayer",
      "outputs": [],
      "payable": true,
      "stateMutability": "payable",
      "type": "function"
    },
    {
      "constant": true,
      "inputs": [],
      "name": "getPlayers",
      "outputs": [
        {
          "name": "",
          "type": "address[]"
        },
        {
          "name": "",
          "type": "uint256[]"
        }
      ],
      "payable": false,
      "stateMutability": "view",
      "type": "function"
    },
    {
      "constant": true,
      "inputs": [],
      "name": "getBalance",
      "outputs": [
        {
          "name": "",
          "type": "uint256"
        }
      ],
      "payable": false,
      "stateMutability": "view",
      "type": "function"
    },
    {
      "constant": true,
      "inputs": [],
      "name": "getWinnerTicketNumber",
      "outputs": [
        {
          "name": "",
          "type": "uint256"
        }
      ],
      "payable": false,
      "stateMutability": "view",
      "type": "function"
    }
  ],
  "bytecode": "0x60606040526000600355341561001457600080fd5b61002f6100346401000000000261020a176401000000009004565b61004e565b600060018190555060006002819055506000600381905550565b6108988061005d6000396000f300606060405260043610610078576000357c0100000000000000000000000000000000000000000000000000000000900463ffffffff1680630fcaed941461007d57806312065fe01461009257806327b5db8a146100bb5780638b5b9ccc146100c557806399ced76914610177578063f71d96cb146101a0575b600080fd5b341561008857600080fd5b61009061020a565b005b341561009d57600080fd5b6100a5610224565b6040518082815260200191505060405180910390f35b6100c361022e565b005b34156100d057600080fd5b6100d86103fd565b604051808060200180602001838103835285818151815260200191508051906020019060200280838360005b8381101561011f578082015181840152602081019050610104565b50505050905001838103825284818151815260200191508051906020019060200280838360005b83811015610161578082015181840152602081019050610146565b5050505090500194505050505060405180910390f35b341561018257600080fd5b61018a610591565b6040518082815260200191505060405180910390f35b34156101ab57600080fd5b6101c1600480803590602001909190505061059b565b604051808373ffffffffffffffffffffffffffffffffffffffff1673ffffffffffffffffffffffffffffffffffffffff1681526020018281526020019250505060405180910390f35b600060018190555060006002819055506000600381905550565b6000600254905090565b610236610794565b67016345785d8a0000341015151561024d57600080fd5b674563918244f4000034600254011115151561026857600080fd5b33816000019073ffffffffffffffffffffffffffffffffffffffff16908173ffffffffffffffffffffffffffffffffffffffff16815250503481602001818152505060008054905060015414156102d35760016000818180549050019150816102d191906107c4565b505b80600060016000815480929190600101919050558154811015156102f357fe5b906000526020600020906002020160008201518160000160006101000a81548173ffffffffffffffffffffffffffffffffffffffff021916908373ffffffffffffffffffffffffffffffffffffffff16021790555060208201518160010155905050346002600082825401925050819055507f495c9e7b8adb47177a67ea70e038edbed2fa5816d03c72c7a737077f058f533b3334610390610224565b604051808473ffffffffffffffffffffffffffffffffffffffff1673ffffffffffffffffffffffffffffffffffffffff168152602001838152602001828152602001935050505060405180910390a1674563918244f4000060025414156103fa576103f96105ee565b5b50565b6104056107f6565b61040d61080a565b6104156107f6565b61041d61080a565b6000610427610794565b6001546040518059106104375750595b9080825280602002602001820160405250935060015460405180591061045a5750595b90808252806020026020018201604052509250600091505b6001548210156105835760008281548110151561048b57fe5b90600052602060002090600202016040805190810160405290816000820160009054906101000a900473ffffffffffffffffffffffffffffffffffffffff1673ffffffffffffffffffffffffffffffffffffffff1673ffffffffffffffffffffffffffffffffffffffff16815260200160018201548152505090508060000151848381518110151561051957fe5b9060200190602002019073ffffffffffffffffffffffffffffffffffffffff16908173ffffffffffffffffffffffffffffffffffffffff16815250508060200151838381518110151561056857fe5b90602001906020020181815250508180600101925050610472565b838395509550505050509091565b6000600454905090565b6000818154811015156105aa57fe5b90600052602060002090600202016000915090508060000160009054906101000a900473ffffffffffffffffffffffffffffffffffffffff16908060010154905082565b6000806105f96106bb565b600481905550600091505b6001156106b75767016345785d8a000060008381548110151561062357fe5b90600052602060002090600202016001015481151561063e57fe5b046003600082825401925050819055506004546003541015156106ac5760008281548110151561066a57fe5b906000526020600020906002020160000160009054906101000a900473ffffffffffffffffffffffffffffffffffffffff1690506106a7816106da565b6106b7565b600182019150610604565b5050565b6000600160326001430340600190048115156106d357fe5b0601905090565b8073ffffffffffffffffffffffffffffffffffffffff166108fc6002549081150290604051600060405180830381858888f19350505050151561071c57600080fd5b61072461020a565b7f80e009436f30a4f32133e25b51b5349f2842ea9e93ea4fb6cdaaa4b4e518c68781600254604051808373ffffffffffffffffffffffffffffffffffffffff1673ffffffffffffffffffffffffffffffffffffffff1681526020018281526020019250505060405180910390a150565b6040805190810160405280600073ffffffffffffffffffffffffffffffffffffffff168152602001600081525090565b8154818355818115116107f1576002028160020283600052602060002091820191016107f0919061081e565b5b505050565b602060405190810160405280600081525090565b602060405190810160405280600081525090565b61086991905b8082111561086557600080820160006101000a81549073ffffffffffffffffffffffffffffffffffffffff0219169055600182016000905550600201610824565b5090565b905600a165627a7a723058203f77ffbc97883c6887c70dfa94f9a6d73487707fac224996a342b70f9e0d3c100029",
  "source": "pragma solidity ^0.4.1;\n\ncontract Lottery {\n\n  Player[] public players;\n  uint numPlayers;\n  uint256 pot;\n\n  event PayoutEvent(address target, uint256 amount);\n  event PlayerAddedEvent(address playerAddress, uint256 amount, uint256 pot);\n\n  struct Player {\n    address playerAddress;\n    uint256 amount;\n  }\n\n\n  function Lottery() public {\n    restartLottery();\n  }\n\n\n  function restartLottery() public {\n    numPlayers = 0;\n    pot = 0;\n    accumulatedLotteryTicketNumber = 0;\n  }\n\n\n  function addPlayer() payable public {\n    require(msg.value >= 0.1 ether);\n    require(pot + msg.value <= 5 ether);\n\n    Player memory newPlayer;\n    newPlayer.playerAddress = msg.sender;\n    newPlayer.amount = msg.value;\n\n    /*\n      This method of processing an array might be worth talking about.\n      https://ethereum.stackexchange.com/questions/3373/how-to-clear-large-arrays-without-blowing-the-gas-limit\n    */\n    if (numPlayers == players.length) {\n      players.length += 1;\n    }\n    players[numPlayers++] = newPlayer;\n\n    pot += msg.value;\n\n    emit PlayerAddedEvent(msg.sender, msg.value, getBalance());\n\n    if (pot == 5 ether) {\n      playLottery();\n    }\n  }\n\n\n  function getPlayers() constant public returns (address[], uint[]){\n    address[] memory playerAddresses = new address[](numPlayers);\n    uint[] memory amounts = new uint[](numPlayers);\n\n    for (uint i = 0; i < numPlayers; i++) {\n      Player memory currentPlayer;\n      currentPlayer = players[i];\n\n      playerAddresses[i] = currentPlayer.playerAddress;\n      amounts[i] = currentPlayer.amount;\n    }\n    return (playerAddresses, amounts);\n  }\n\n\n  function getBalance() constant public returns (uint256) {\n    return pot;\n  }\n\n\n  uint accumulatedLotteryTicketNumber = 0;\n  uint winnerTickerNumber;\n\n  function playLottery() private {\n    winnerTickerNumber = generateWinnerTicketNumber();\n    uint playerIndex = 0;\n\n    while (true) {\n      accumulatedLotteryTicketNumber += players[playerIndex].amount / (10 ** 17);\n      if (accumulatedLotteryTicketNumber >= winnerTickerNumber) {\n        address winner = players[playerIndex].playerAddress;\n        payout(winner);\n        break;\n      }\n      else {\n        playerIndex += 1;\n      }\n    }\n  }\n\n\n  function generateWinnerTicketNumber() constant private returns (uint) {\n    return uint(block.blockhash(block.number-1))%50 + 1;\n  }\n\n\n  function payout(address winner) private {\n    winner.transfer(pot);\n    restartLottery();\n    emit PayoutEvent(winner, pot);\n  }\n\n\n  function getWinnerTicketNumber() constant public returns (uint) {\n    return winnerTickerNumber;\n  }\n\n\n}\n",
  "sourcePath": "/Users/vincent/Documents/FIB/DS/Project/FIB-DS-Ethereum-SmartContracts/Lottery/contracts/Lottery.sol",
  "compiler": {
    "name": "solc",
    "version": "0.4.21+commit.dfe3193c.Emscripten.clang"
  },
  "schemaVersion": "2.0.0",
  "updatedAt": "2018-05-20T07:14:50.509Z"
}