{
  "contractName": "Lottery",
  "abi": [
    {
      "constant": true,
      "inputs": [
        {
          "name": "",
          "type": "uint256"
        }
      ],
      "name": "players",
      "outputs": [
        {
          "name": "playerAddress",
          "type": "address"
        },
        {
          "name": "amount",
          "type": "uint256"
        }
      ],
      "payable": false,
      "stateMutability": "view",
      "type": "function"
    },
    {
      "inputs": [],
      "payable": false,
      "stateMutability": "nonpayable",
      "type": "constructor"
    },
    {
      "anonymous": false,
      "inputs": [
        {
          "indexed": false,
          "name": "target",
          "type": "address"
        },
        {
          "indexed": false,
          "name": "amount",
          "type": "uint256"
        }
      ],
      "name": "PayoutEvent",
      "type": "event"
    },
    {
      "anonymous": false,
      "inputs": [
        {
          "indexed": false,
          "name": "playerAddress",
          "type": "address"
        },
        {
          "indexed": false,
          "name": "amount",
          "type": "uint256"
        },
        {
          "indexed": false,
          "name": "pot",
          "type": "uint256"
        }
      ],
      "name": "PlayerAddedEvent",
      "type": "event"
    },
    {
      "constant": false,
      "inputs": [],
      "name": "restartLottery",
      "outputs": [],
      "payable": false,
      "stateMutability": "nonpayable",
      "type": "function"
    },
    {
      "constant": false,
      "inputs": [],
      "name": "addPlayer",
      "outputs": [],
      "payable": true,
      "stateMutability": "payable",
      "type": "function"
    },
    {
      "constant": false,
      "inputs": [],
      "name": "get",
      "outputs": [
        {
          "name": "",
          "type": "address"
        }
      ],
      "payable": false,
      "stateMutability": "nonpayable",
      "type": "function"
    },
    {
      "constant": true,
      "inputs": [],
      "name": "getPlayers",
      "outputs": [
        {
          "name": "",
          "type": "address[]"
        },
        {
          "name": "",
          "type": "uint256[]"
        }
      ],
      "payable": false,
      "stateMutability": "view",
      "type": "function"
    },
    {
      "constant": true,
      "inputs": [],
      "name": "getBalance",
      "outputs": [
        {
          "name": "",
          "type": "uint256"
        }
      ],
      "payable": false,
      "stateMutability": "view",
      "type": "function"
    },
    {
      "constant": true,
      "inputs": [],
      "name": "getWinnerTicketNumber",
      "outputs": [
        {
          "name": "",
          "type": "uint256"
        }
      ],
      "payable": false,
      "stateMutability": "view",
      "type": "function"
    }
  ],
  "bytecode": "0x60606040526000600455341561001457600080fd5b61002f6100346401000000000261026a176401000000009004565b61004e565b600060018190555060006002819055506000600481905550565b6109638061005d6000396000f300606060405260043610610083576000357c0100000000000000000000000000000000000000000000000000000000900463ffffffff1680630fcaed941461008857806312065fe01461009d57806327b5db8a146100c65780636d4ce63c146100d05780638b5b9ccc1461012557806399ced769146101d7578063f71d96cb14610200575b600080fd5b341561009357600080fd5b61009b61026a565b005b34156100a857600080fd5b6100b0610284565b6040518082815260200191505060405180910390f35b6100ce61028e565b005b34156100db57600080fd5b6100e361049e565b604051808273ffffffffffffffffffffffffffffffffffffffff1673ffffffffffffffffffffffffffffffffffffffff16815260200191505060405180910390f35b341561013057600080fd5b6101386104c8565b604051808060200180602001838103835285818151815260200191508051906020019060200280838360005b8381101561017f578082015181840152602081019050610164565b50505050905001838103825284818151815260200191508051906020019060200280838360005b838110156101c15780820151818401526020810190506101a6565b5050505090500194505050505060405180910390f35b34156101e257600080fd5b6101ea61065c565b6040518082815260200191505060405180910390f35b341561020b57600080fd5b6102216004808035906020019091905050610666565b604051808373ffffffffffffffffffffffffffffffffffffffff1673ffffffffffffffffffffffffffffffffffffffff1681526020018281526020019250505060405180910390f35b600060018190555060006002819055506000600481905550565b6000600254905090565b61029661085f565b67016345785d8a000034101515156102ad57600080fd5b674563918244f400003460025401111515156102c857600080fd5b33816000019073ffffffffffffffffffffffffffffffffffffffff16908173ffffffffffffffffffffffffffffffffffffffff1681525050348160200181815250506000805490506001541415610333576001600081818054905001915081610331919061088f565b505b806000600160008154809291906001019190505581548110151561035357fe5b906000526020600020906002020160008201518160000160006101000a81548173ffffffffffffffffffffffffffffffffffffffff021916908373ffffffffffffffffffffffffffffffffffffffff16021790555060208201518160010155905050346002600082825401925050819055507f495c9e7b8adb47177a67ea70e038edbed2fa5816d03c72c7a737077f058f533b33346103f0610284565b604051808473ffffffffffffffffffffffffffffffffffffffff1673ffffffffffffffffffffffffffffffffffffffff168152602001838152602001828152602001935050505060405180910390a1674563918244f40000600254141561045a576104596106b9565b5b33600360006101000a81548173ffffffffffffffffffffffffffffffffffffffff021916908373ffffffffffffffffffffffffffffffffffffffff16021790555050565b6000600360009054906101000a900473ffffffffffffffffffffffffffffffffffffffff16905090565b6104d06108c1565b6104d86108d5565b6104e06108c1565b6104e86108d5565b60006104f261085f565b6001546040518059106105025750595b908082528060200260200182016040525093506001546040518059106105255750595b90808252806020026020018201604052509250600091505b60015482101561064e5760008281548110151561055657fe5b90600052602060002090600202016040805190810160405290816000820160009054906101000a900473ffffffffffffffffffffffffffffffffffffffff1673ffffffffffffffffffffffffffffffffffffffff1673ffffffffffffffffffffffffffffffffffffffff1681526020016001820154815250509050806000015184838151811015156105e457fe5b9060200190602002019073ffffffffffffffffffffffffffffffffffffffff16908173ffffffffffffffffffffffffffffffffffffffff16815250508060200151838381518110151561063357fe5b9060200190602002018181525050818060010192505061053d565b838395509550505050509091565b6000600554905090565b60008181548110151561067557fe5b90600052602060002090600202016000915090508060000160009054906101000a900473ffffffffffffffffffffffffffffffffffffffff16908060010154905082565b6000806106c4610786565b600581905550600091505b6001156107825767016345785d8a00006000838154811015156106ee57fe5b90600052602060002090600202016001015481151561070957fe5b046004600082825401925050819055506005546004541015156107775760008281548110151561073557fe5b906000526020600020906002020160000160009054906101000a900473ffffffffffffffffffffffffffffffffffffffff169050610772816107a5565b610782565b6001820191506106cf565b5050565b60006001603260014303406001900481151561079e57fe5b0601905090565b8073ffffffffffffffffffffffffffffffffffffffff166108fc6002549081150290604051600060405180830381858888f1935050505015156107e757600080fd5b6107ef61026a565b7f80e009436f30a4f32133e25b51b5349f2842ea9e93ea4fb6cdaaa4b4e518c68781600254604051808373ffffffffffffffffffffffffffffffffffffffff1673ffffffffffffffffffffffffffffffffffffffff1681526020018281526020019250505060405180910390a150565b6040805190810160405280600073ffffffffffffffffffffffffffffffffffffffff168152602001600081525090565b8154818355818115116108bc576002028160020283600052602060002091820191016108bb91906108e9565b5b505050565b602060405190810160405280600081525090565b602060405190810160405280600081525090565b61093491905b8082111561093057600080820160006101000a81549073ffffffffffffffffffffffffffffffffffffffff02191690556001820160009055506002016108ef565b5090565b905600a165627a7a723058206bff96445f2f5383503b5d63790e49b58a6636ff1869eb0526cf5f09d8cd02bb0029",
  "source": "pragma solidity ^0.4.1;\n\ncontract Lottery {\n\n  Player[] public players;\n  uint numPlayers;\n  uint256 pot;\n\n  event PayoutEvent(address target, uint256 amount);\n  event PlayerAddedEvent(address playerAddress, uint256 amount, uint256 pot);\n\n  struct Player {\n    address playerAddress;\n    uint256 amount;\n  }\n\n\n  function Lottery() public {\n    restartLottery();\n  }\n\n\n  function restartLottery() public {\n    numPlayers = 0;\n    pot = 0;\n    accumulatedLotteryTicketNumber = 0;\n  }\n\naddress sender;\n  function addPlayer() payable public {\n    require(msg.value >= 0.1 ether);\n    require(pot + msg.value <= 5 ether);\n\n    Player memory newPlayer;\n    newPlayer.playerAddress = msg.sender;\n    newPlayer.amount = msg.value;\n\n\n    if (numPlayers == players.length) {\n      players.length += 1;\n    }\n    players[numPlayers++] = newPlayer;\n\n    pot += msg.value;\n\n    emit PlayerAddedEvent(msg.sender, msg.value, getBalance());\n\n    if (pot == 5 ether) {\n      playLottery();\n    }\n    sender = msg.sender;\n  }\n\n  function get() returns (address) {\n    return sender;\n  }\n\n\n  /*\n    This method of processing an array might be worth talking about.\n    https://ethereum.stackexchange.com/questions/3373/how-to-clear-large-arrays-without-blowing-the-gas-limit\n  */\n  function getPlayers() constant public returns (address[], uint[]){\n    address[] memory playerAddresses = new address[](numPlayers);\n    uint[] memory amounts = new uint[](numPlayers);\n\n    for (uint i = 0; i < numPlayers; i++) {\n      Player memory currentPlayer;\n      currentPlayer = players[i];\n\n      playerAddresses[i] = currentPlayer.playerAddress;\n      amounts[i] = currentPlayer.amount;\n    }\n    return (playerAddresses, amounts);\n  }\n\n\n  function getBalance() constant public returns (uint256) {\n    return pot;\n  }\n\n\n  uint accumulatedLotteryTicketNumber = 0;\n  uint winnerTickerNumber;\n\n  function playLottery() private {\n    winnerTickerNumber = generateWinnerTicketNumber();\n    uint playerIndex = 0;\n\n    while (true) {\n      accumulatedLotteryTicketNumber += players[playerIndex].amount / (10 ** 17);\n      if (accumulatedLotteryTicketNumber >= winnerTickerNumber) {\n        address winner = players[playerIndex].playerAddress;\n        payout(winner);\n        break;\n      }\n      else {\n        playerIndex += 1;\n      }\n    }\n  }\n\n\n  function generateWinnerTicketNumber() constant private returns (uint) {\n    return uint(block.blockhash(block.number-1))%50 + 1;\n  }\n\n\n  function payout(address winner) private {\n    winner.transfer(pot);\n    restartLottery();\n    emit PayoutEvent(winner, pot);\n  }\n\n\n  function getWinnerTicketNumber() constant public returns (uint) {\n    return winnerTickerNumber;\n  }\n\n\n}\n",
  "sourcePath": "/Users/vincent/Documents/FIB/DS/Project/FIB-DS-Ethereum-SmartContracts/Lottery/contracts/Lottery.sol",
  "compiler": {
    "name": "solc",
    "version": "0.4.21+commit.dfe3193c.Emscripten.clang"
  },
  "schemaVersion": "2.0.0",
  "updatedAt": "2018-05-19T15:49:19.563Z"
}